{
  "_format": "hh-sol-artifact-1",
  "contractName": "BalancerSwap",
  "sourceName": "src/BalancerSwap.sol",
  "abi": [
    {
      "inputs": [
        {
          "internalType": "address",
          "name": "_token",
          "type": "address"
        }
      ],
      "stateMutability": "nonpayable",
      "type": "constructor"
    },
    {
      "inputs": [
        {
          "internalType": "address",
          "name": "spender",
          "type": "address"
        },
        {
          "internalType": "uint256",
          "name": "allowance",
          "type": "uint256"
        },
        {
          "internalType": "uint256",
          "name": "needed",
          "type": "uint256"
        }
      ],
      "name": "ERC20InsufficientAllowance",
      "type": "error"
    },
    {
      "inputs": [
        {
          "internalType": "address",
          "name": "sender",
          "type": "address"
        },
        {
          "internalType": "uint256",
          "name": "balance",
          "type": "uint256"
        },
        {
          "internalType": "uint256",
          "name": "needed",
          "type": "uint256"
        }
      ],
      "name": "ERC20InsufficientBalance",
      "type": "error"
    },
    {
      "inputs": [
        {
          "internalType": "address",
          "name": "approver",
          "type": "address"
        }
      ],
      "name": "ERC20InvalidApprover",
      "type": "error"
    },
    {
      "inputs": [
        {
          "internalType": "address",
          "name": "receiver",
          "type": "address"
        }
      ],
      "name": "ERC20InvalidReceiver",
      "type": "error"
    },
    {
      "inputs": [
        {
          "internalType": "address",
          "name": "sender",
          "type": "address"
        }
      ],
      "name": "ERC20InvalidSender",
      "type": "error"
    },
    {
      "inputs": [
        {
          "internalType": "address",
          "name": "spender",
          "type": "address"
        }
      ],
      "name": "ERC20InvalidSpender",
      "type": "error"
    },
    {
      "inputs": [],
      "name": "ReentrancyGuardReentrantCall",
      "type": "error"
    },
    {
      "anonymous": false,
      "inputs": [
        {
          "indexed": true,
          "internalType": "address",
          "name": "provider",
          "type": "address"
        },
        {
          "indexed": false,
          "internalType": "uint256",
          "name": "ethAmount",
          "type": "uint256"
        },
        {
          "indexed": false,
          "internalType": "uint256",
          "name": "tokenAmount",
          "type": "uint256"
        },
        {
          "indexed": false,
          "internalType": "uint256",
          "name": "lpMinted",
          "type": "uint256"
        }
      ],
      "name": "AddLiquidity",
      "type": "event"
    },
    {
      "anonymous": false,
      "inputs": [
        {
          "indexed": true,
          "internalType": "address",
          "name": "owner",
          "type": "address"
        },
        {
          "indexed": true,
          "internalType": "address",
          "name": "spender",
          "type": "address"
        },
        {
          "indexed": false,
          "internalType": "uint256",
          "name": "value",
          "type": "uint256"
        }
      ],
      "name": "Approval",
      "type": "event"
    },
    {
      "anonymous": false,
      "inputs": [
        {
          "indexed": true,
          "internalType": "address",
          "name": "provider",
          "type": "address"
        },
        {
          "indexed": false,
          "internalType": "uint256",
          "name": "ethAmount",
          "type": "uint256"
        },
        {
          "indexed": false,
          "internalType": "uint256",
          "name": "tokenAmount",
          "type": "uint256"
        },
        {
          "indexed": false,
          "internalType": "uint256",
          "name": "lpBurned",
          "type": "uint256"
        }
      ],
      "name": "RemoveLiquidity",
      "type": "event"
    },
    {
      "anonymous": false,
      "inputs": [
        {
          "indexed": true,
          "internalType": "address",
          "name": "sender",
          "type": "address"
        },
        {
          "indexed": false,
          "internalType": "uint256",
          "name": "ethIn",
          "type": "uint256"
        },
        {
          "indexed": false,
          "internalType": "uint256",
          "name": "tokenIn",
          "type": "uint256"
        },
        {
          "indexed": false,
          "internalType": "uint256",
          "name": "ethOut",
          "type": "uint256"
        },
        {
          "indexed": false,
          "internalType": "uint256",
          "name": "tokenOut",
          "type": "uint256"
        }
      ],
      "name": "Swap",
      "type": "event"
    },
    {
      "anonymous": false,
      "inputs": [
        {
          "indexed": true,
          "internalType": "address",
          "name": "from",
          "type": "address"
        },
        {
          "indexed": true,
          "internalType": "address",
          "name": "to",
          "type": "address"
        },
        {
          "indexed": false,
          "internalType": "uint256",
          "name": "value",
          "type": "uint256"
        }
      ],
      "name": "Transfer",
      "type": "event"
    },
    {
      "inputs": [],
      "name": "FEE_DENOMINATOR",
      "outputs": [
        {
          "internalType": "uint256",
          "name": "",
          "type": "uint256"
        }
      ],
      "stateMutability": "view",
      "type": "function"
    },
    {
      "inputs": [],
      "name": "FEE_NUMERATOR",
      "outputs": [
        {
          "internalType": "uint256",
          "name": "",
          "type": "uint256"
        }
      ],
      "stateMutability": "view",
      "type": "function"
    },
    {
      "inputs": [],
      "name": "MINIMUM_LIQUIDITY",
      "outputs": [
        {
          "internalType": "uint256",
          "name": "",
          "type": "uint256"
        }
      ],
      "stateMutability": "view",
      "type": "function"
    },
    {
      "inputs": [
        {
          "internalType": "uint256",
          "name": "tokenAmount",
          "type": "uint256"
        },
        {
          "internalType": "uint256",
          "name": "minLpOut",
          "type": "uint256"
        }
      ],
      "name": "addLiquidity",
      "outputs": [
        {
          "internalType": "uint256",
          "name": "lpMinted",
          "type": "uint256"
        }
      ],
      "stateMutability": "payable",
      "type": "function"
    },
    {
      "inputs": [
        {
          "internalType": "address",
          "name": "owner",
          "type": "address"
        },
        {
          "internalType": "address",
          "name": "spender",
          "type": "address"
        }
      ],
      "name": "allowance",
      "outputs": [
        {
          "internalType": "uint256",
          "name": "",
          "type": "uint256"
        }
      ],
      "stateMutability": "view",
      "type": "function"
    },
    {
      "inputs": [
        {
          "internalType": "address",
          "name": "spender",
          "type": "address"
        },
        {
          "internalType": "uint256",
          "name": "value",
          "type": "uint256"
        }
      ],
      "name": "approve",
      "outputs": [
        {
          "internalType": "bool",
          "name": "",
          "type": "bool"
        }
      ],
      "stateMutability": "nonpayable",
      "type": "function"
    },
    {
      "inputs": [
        {
          "internalType": "address",
          "name": "account",
          "type": "address"
        }
      ],
      "name": "balanceOf",
      "outputs": [
        {
          "internalType": "uint256",
          "name": "",
          "type": "uint256"
        }
      ],
      "stateMutability": "view",
      "type": "function"
    },
    {
      "inputs": [],
      "name": "decimals",
      "outputs": [
        {
          "internalType": "uint8",
          "name": "",
          "type": "uint8"
        }
      ],
      "stateMutability": "view",
      "type": "function"
    },
    {
      "inputs": [],
      "name": "ethReserve",
      "outputs": [
        {
          "internalType": "uint256",
          "name": "",
          "type": "uint256"
        }
      ],
      "stateMutability": "view",
      "type": "function"
    },
    {
      "inputs": [
        {
          "internalType": "uint256",
          "name": "ethIn",
          "type": "uint256"
        }
      ],
      "name": "getEthToTokenPrice",
      "outputs": [
        {
          "internalType": "uint256",
          "name": "tokensOut",
          "type": "uint256"
        }
      ],
      "stateMutability": "view",
      "type": "function"
    },
    {
      "inputs": [],
      "name": "getSpotPrice",
      "outputs": [
        {
          "internalType": "uint256",
          "name": "tokenPerEth",
          "type": "uint256"
        }
      ],
      "stateMutability": "view",
      "type": "function"
    },
    {
      "inputs": [
        {
          "internalType": "uint256",
          "name": "tokenIn",
          "type": "uint256"
        }
      ],
      "name": "getTokenToEthPrice",
      "outputs": [
        {
          "internalType": "uint256",
          "name": "ethOut",
          "type": "uint256"
        }
      ],
      "stateMutability": "view",
      "type": "function"
    },
    {
      "inputs": [],
      "name": "name",
      "outputs": [
        {
          "internalType": "string",
          "name": "",
          "type": "string"
        }
      ],
      "stateMutability": "view",
      "type": "function"
    },
    {
      "inputs": [
        {
          "internalType": "uint256",
          "name": "lpAmount",
          "type": "uint256"
        },
        {
          "internalType": "uint256",
          "name": "minEthOut",
          "type": "uint256"
        },
        {
          "internalType": "uint256",
          "name": "minTokenOut",
          "type": "uint256"
        }
      ],
      "name": "removeLiquidity",
      "outputs": [
        {
          "internalType": "uint256",
          "name": "ethOut",
          "type": "uint256"
        },
        {
          "internalType": "uint256",
          "name": "tokenOut",
          "type": "uint256"
        }
      ],
      "stateMutability": "nonpayable",
      "type": "function"
    },
    {
      "inputs": [
        {
          "internalType": "uint256",
          "name": "minTokensOut",
          "type": "uint256"
        }
      ],
      "name": "swapEthForTokens",
      "outputs": [],
      "stateMutability": "payable",
      "type": "function"
    },
    {
      "inputs": [
        {
          "internalType": "uint256",
          "name": "tokenAmount",
          "type": "uint256"
        },
        {
          "internalType": "uint256",
          "name": "minEthOut",
          "type": "uint256"
        }
      ],
      "name": "swapTokensForEth",
      "outputs": [],
      "stateMutability": "nonpayable",
      "type": "function"
    },
    {
      "inputs": [],
      "name": "symbol",
      "outputs": [
        {
          "internalType": "string",
          "name": "",
          "type": "string"
        }
      ],
      "stateMutability": "view",
      "type": "function"
    },
    {
      "inputs": [],
      "name": "token",
      "outputs": [
        {
          "internalType": "contract IERC20",
          "name": "",
          "type": "address"
        }
      ],
      "stateMutability": "view",
      "type": "function"
    },
    {
      "inputs": [],
      "name": "tokenReserve",
      "outputs": [
        {
          "internalType": "uint256",
          "name": "",
          "type": "uint256"
        }
      ],
      "stateMutability": "view",
      "type": "function"
    },
    {
      "inputs": [],
      "name": "totalSupply",
      "outputs": [
        {
          "internalType": "uint256",
          "name": "",
          "type": "uint256"
        }
      ],
      "stateMutability": "view",
      "type": "function"
    },
    {
      "inputs": [
        {
          "internalType": "address",
          "name": "to",
          "type": "address"
        },
        {
          "internalType": "uint256",
          "name": "value",
          "type": "uint256"
        }
      ],
      "name": "transfer",
      "outputs": [
        {
          "internalType": "bool",
          "name": "",
          "type": "bool"
        }
      ],
      "stateMutability": "nonpayable",
      "type": "function"
    },
    {
      "inputs": [
        {
          "internalType": "address",
          "name": "from",
          "type": "address"
        },
        {
          "internalType": "address",
          "name": "to",
          "type": "address"
        },
        {
          "internalType": "uint256",
          "name": "value",
          "type": "uint256"
        }
      ],
      "name": "transferFrom",
      "outputs": [
        {
          "internalType": "bool",
          "name": "",
          "type": "bool"
        }
      ],
      "stateMutability": "nonpayable",
      "type": "function"
    },
    {
      "stateMutability": "payable",
      "type": "receive"
    }
  ],
  "bytecode": "0x60a06040523480156200001157600080fd5b5060405162001daa38038062001daa833981016040819052620000349162000147565b6040518060400160405280600f81526020016e042616c616e63657253776170204c5608c1b81525060405180604001604052806004815260200163042414c560e41b81525081600390816200008a919062000220565b50600462000099828262000220565b5050506001620000b5620000b26200012360201b60201c565b90565b556001600160a01b038116620001115760405162461bcd60e51b815260206004820152601560248201527f496e76616c696420746f6b656e20616464726573730000000000000000000000604482015260640160405180910390fd5b6001600160a01b0316608052620002ec565b7f9b779b17422d0df92223018b32b4d1fa46e071723d6817e2486d003becc55f0090565b6000602082840312156200015a57600080fd5b81516001600160a01b03811681146200017257600080fd5b9392505050565b634e487b7160e01b600052604160045260246000fd5b600181811c90821680620001a457607f821691505b602082108103620001c557634e487b7160e01b600052602260045260246000fd5b50919050565b601f8211156200021b576000816000526020600020601f850160051c81016020861015620001f65750805b601f850160051c820191505b81811015620002175782815560010162000202565b5050505b505050565b81516001600160401b038111156200023c576200023c62000179565b62000254816200024d84546200018f565b84620001cb565b602080601f8311600181146200028c5760008415620002735750858301515b600019600386901b1c1916600185901b17855562000217565b600085815260208120601f198616915b82811015620002bd578886015182559484019460019091019084016200029c565b5085821015620002dc5787850151600019600388901b60f8161c191681555b5050505050600190811b01905550565b608051611a8662000324600039600081816103e8015281816106e001528181610a2201528181610e0c01526110b70152611a866000f3fe6080604052600436106101395760003560e01c806395d89b41116100ab578063cbcb31711161006f578063cbcb31711461034f578063d62ccb3f14610365578063d73792a914610339578063dc76fabc1461037b578063dd62ed3e14610390578063fc0c546a146103d657600080fd5b806395d89b41146102d15780639cd441da146102e6578063a9059cbb146102f9578063aea380a014610319578063ba9a7a561461033957600080fd5b8063331fff83116100fd578063331fff83146101fb5780633435c5771461021b57806341cd47bf1461023057806370a0823114610246578063857620e11461027c5780638bf3bf0b146102b157600080fd5b806306fdde0314610145578063095ea7b31461017057806318160ddd146101a057806323b872dd146101bf578063313ce567146101df57600080fd5b3661014057005b600080fd5b34801561015157600080fd5b5061015a610422565b6040516101679190611783565b60405180910390f35b34801561017c57600080fd5b5061019061018b3660046117ee565b6104b4565b6040519015158152602001610167565b3480156101ac57600080fd5b506002545b604051908152602001610167565b3480156101cb57600080fd5b506101906101da366004611818565b6104ce565b3480156101eb57600080fd5b5060405160128152602001610167565b34801561020757600080fd5b506101b1610216366004611854565b6104f2565b61022e610229366004611854565b61053b565b005b34801561023c57600080fd5b506101b16103e581565b34801561025257600080fd5b506101b161026136600461186d565b6001600160a01b031660009081526020819052604090205490565b34801561028857600080fd5b5061029c61029736600461188f565b6107d7565b60408051928352602083019190915201610167565b3480156102bd57600080fd5b506101b16102cc366004611854565b610ba5565b3480156102dd57600080fd5b5061015a610be5565b6101b16102f43660046118bb565b610bf4565b34801561030557600080fd5b506101906103143660046117ee565b610f02565b34801561032557600080fd5b5061022e6103343660046118bb565b610f10565b34801561034557600080fd5b506101b16103e881565b34801561035b57600080fd5b506101b160065481565b34801561037157600080fd5b506101b160055481565b34801561038757600080fd5b506101b161123d565b34801561039c57600080fd5b506101b16103ab3660046118dd565b6001600160a01b03918216600090815260016020908152604080832093909416825291909152205490565b3480156103e257600080fd5b5061040a7f000000000000000000000000000000000000000000000000000000000000000081565b6040516001600160a01b039091168152602001610167565b60606003805461043190611910565b80601f016020809104026020016040519081016040528092919081815260200182805461045d90611910565b80156104aa5780601f1061047f576101008083540402835291602001916104aa565b820191906000526020600020905b81548152906001019060200180831161048d57829003601f168201915b5050505050905090565b6000336104c2818585611287565b60019150505b92915050565b6000336104dc858285611299565b6104e7858585611318565b506001949350505050565b60008060055411801561050757506000600654115b61052c5760405162461bcd60e51b815260040161052390611944565b60405180910390fd5b6104c882600554600654611377565b610543611460565b600034116105835760405162461bcd60e51b815260206004820152600d60248201526c09aeae6e840e6cadcc8408aa89609b1b6044820152606401610523565b600060055411801561059757506000600654115b6105db5760405162461bcd60e51b8152602060048201526015602482015274506f6f6c20686173206e6f206c697175696469747960581b6044820152606401610523565b600034905060006105f182600554600654611377565b9050828110156106435760405162461bcd60e51b815260206004820152601d60248201527f536c6970706167653a20696e73756666696369656e74206f75747075740000006044820152606401610523565b60065481106106945760405162461bcd60e51b815260206004820152601a60248201527f496e73756666696369656e7420746f6b656e20726573657276650000000000006044820152606401610523565b81600560008282546106a69190611980565b9250508190555080600660008282546106bf9190611993565b909155505060405163a9059cbb60e01b8152336004820152602481018290527f00000000000000000000000000000000000000000000000000000000000000006001600160a01b03169063a9059cbb906044016020604051808303816000875af1158015610731573d6000803e3d6000fd5b505050506040513d601f19601f8201168201806040525081019061075591906119a6565b6107715760405162461bcd60e51b8152600401610523906119c8565b604080518381526000602082018190528183015260608101839052905133917f49926bbebe8474393f434dfa4f78694c0923efa07d19f2284518bfabd06eb737919081900360800190a250506107d46001600080516020611a3183398151915255565b50565b6000806107e2611460565b6000851161082b5760405162461bcd60e51b81526020600482015260166024820152754d7573742070726f76696465204c5020746f6b656e7360501b6044820152606401610523565b600061083660025490565b9050600081116108585760405162461bcd60e51b815260040161052390611944565b806005548761086791906119f7565b6108719190611a0e565b9250806006548761088291906119f7565b61088c9190611a0e565b9150848310156108de5760405162461bcd60e51b815260206004820152601a60248201527f536c6970706167653a20696e73756666696369656e74204554480000000000006044820152606401610523565b8382101561092e5760405162461bcd60e51b815260206004820152601d60248201527f536c6970706167653a20696e73756666696369656e7420746f6b656e730000006044820152606401610523565b600554831061097a5760405162461bcd60e51b8152602060048201526018602482015277496e73756666696369656e7420455448207265736572766560401b6044820152606401610523565b60065482106109cb5760405162461bcd60e51b815260206004820152601a60248201527f496e73756666696369656e7420746f6b656e20726573657276650000000000006044820152606401610523565b82600560008282546109dd9190611993565b9250508190555081600660008282546109f69190611993565b90915550610a069050338761147c565b60405163a9059cbb60e01b8152336004820152602481018390527f00000000000000000000000000000000000000000000000000000000000000006001600160a01b03169063a9059cbb906044016020604051808303816000875af1158015610a73573d6000803e3d6000fd5b505050506040513d601f19601f82011682018060405250810190610a9791906119a6565b610ab35760405162461bcd60e51b8152600401610523906119c8565b604051600090339085908381818185875af1925050503d8060008114610af5576040519150601f19603f3d011682016040523d82523d6000602084013e610afa565b606091505b5050905080610b415760405162461bcd60e51b8152602060048201526013602482015272115512081d1c985b9cd9995c8819985a5b1959606a1b6044820152606401610523565b604080518581526020810185905290810188905233907f59c3a0b60c6ab7deb62e1440c9e72441db6db7dfe514dba8cb18e60c0d896efa9060600160405180910390a25050610b9d6001600080516020611a3183398151915255565b935093915050565b600080600554118015610bba57506000600654115b610bd65760405162461bcd60e51b815260040161052390611944565b6104c882600654600554611377565b60606004805461043190611910565b6000610bfe611460565b60003411610c3e5760405162461bcd60e51b815260206004820152600d60248201526c09aeae6e840e6cadcc8408aa89609b1b6044820152606401610523565b60008311610c845760405162461bcd60e51b81526020600482015260136024820152724d7573742070726f7669646520746f6b656e7360681b6044820152606401610523565b6000610c8f60025490565b905080600003610ccd576103e8610cae610ca986346119f7565b6114b2565b610cb89190611993565b9150610cc861dead6103e861151c565b610d1a565b600554600090610cdd83346119f7565b610ce79190611a0e565b905060006006548387610cfa91906119f7565b610d049190611a0e565b9050808210610d135780610d15565b815b935050505b82821015610d6a5760405162461bcd60e51b815260206004820152601960248201527f536c6970706167653a20696e73756666696369656e74204c50000000000000006044820152606401610523565b60008211610dba5760405162461bcd60e51b815260206004820152601d60248201527f496e73756666696369656e74206c6971756964697479206d696e7465640000006044820152606401610523565b3460056000828254610dcc9190611980565b925050819055508360066000828254610de59190611980565b90915550506040516323b872dd60e01b8152336004820152306024820152604481018590527f00000000000000000000000000000000000000000000000000000000000000006001600160a01b0316906323b872dd906064016020604051808303816000875af1158015610e5d573d6000803e3d6000fd5b505050506040513d601f19601f82011682018060405250810190610e8191906119a6565b610e9d5760405162461bcd60e51b8152600401610523906119c8565b610ea7338361151c565b604080513481526020810186905290810183905233907fbeb3885786d637a474cbc287c0a44587231633a077f0bd30354d5a4b18996fce9060600160405180910390a2506104c86001600080516020611a3183398151915255565b6000336104c2818585611318565b610f18611460565b60008211610f5e5760405162461bcd60e51b81526020600482015260136024820152724d7573742070726f7669646520746f6b656e7360681b6044820152606401610523565b6000600554118015610f7257506000600654115b610fb65760405162461bcd60e51b8152602060048201526015602482015274506f6f6c20686173206e6f206c697175696469747960581b6044820152606401610523565b6000610fc783600654600554611377565b9050818110156110195760405162461bcd60e51b815260206004820152601d60248201527f536c6970706167653a20696e73756666696369656e74206f75747075740000006044820152606401610523565b60055481106110655760405162461bcd60e51b8152602060048201526018602482015277496e73756666696369656e7420455448207265736572766560401b6044820152606401610523565b82600660008282546110779190611980565b9250508190555080600560008282546110909190611993565b90915550506040516323b872dd60e01b8152336004820152306024820152604481018490527f00000000000000000000000000000000000000000000000000000000000000006001600160a01b0316906323b872dd906064016020604051808303816000875af1158015611108573d6000803e3d6000fd5b505050506040513d601f19601f8201168201806040525081019061112c91906119a6565b6111485760405162461bcd60e51b8152600401610523906119c8565b604051600090339083908381818185875af1925050503d806000811461118a576040519150601f19603f3d011682016040523d82523d6000602084013e61118f565b606091505b50509050806111d65760405162461bcd60e51b8152602060048201526013602482015272115512081d1c985b9cd9995c8819985a5b1959606a1b6044820152606401610523565b604080516000808252602082018790528183018590526060820152905133917f49926bbebe8474393f434dfa4f78694c0923efa07d19f2284518bfabd06eb737919081900360800190a250506112396001600080516020611a3183398151915255565b5050565b600080600554116112605760405162461bcd60e51b815260040161052390611944565b60055460065461127890670de0b6b3a76400006119f7565b6112829190611a0e565b905090565b6112948383836001611552565b505050565b6001600160a01b03838116600090815260016020908152604080832093861683529290522054600019811015611312578181101561130357604051637dc7a0d960e11b81526001600160a01b03841660048201526024810182905260448101839052606401610523565b61131284848484036000611552565b50505050565b6001600160a01b03831661134257604051634b637e8f60e11b815260006004820152602401610523565b6001600160a01b03821661136c5760405163ec442f0560e01b815260006004820152602401610523565b611294838383611627565b60008084116113bd5760405162461bcd60e51b8152602060048201526012602482015271125b9cdd59999a58da595b9d081a5b9c1d5d60721b6044820152606401610523565b6000831180156113cd5750600082115b6114125760405162461bcd60e51b8152602060048201526016602482015275496e73756666696369656e74206c697175696469747960501b6044820152606401610523565b60006114206103e5866119f7565b9050600061142e84836119f7565b905060008261143f6103e8886119f7565b6114499190611980565b90506114558183611a0e565b979650505050505050565b611468611751565b6002600080516020611a3183398151915255565b6001600160a01b0382166114a657604051634b637e8f60e11b815260006004820152602401610523565b61123982600083611627565b6000816000036114c457506000919050565b600060026114d3846001611980565b6114dd9190611a0e565b90508291505b81811015611516579050806002816114fb8186611a0e565b6115059190611980565b61150f9190611a0e565b90506114e3565b50919050565b6001600160a01b0382166115465760405163ec442f0560e01b815260006004820152602401610523565b61123960008383611627565b6001600160a01b03841661157c5760405163e602df0560e01b815260006004820152602401610523565b6001600160a01b0383166115a657604051634a1406b160e11b815260006004820152602401610523565b6001600160a01b038085166000908152600160209081526040808320938716835292905220829055801561131257826001600160a01b0316846001600160a01b03167f8c5be1e5ebec7d5bd14f71427d1e84f3dd0314c0f7b2291e5b200ac8c7c3b9258460405161161991815260200190565b60405180910390a350505050565b6001600160a01b0383166116525780600260008282546116479190611980565b909155506116c49050565b6001600160a01b038316600090815260208190526040902054818110156116a55760405163391434e360e21b81526001600160a01b03851660048201526024810182905260448101839052606401610523565b6001600160a01b03841660009081526020819052604090209082900390555b6001600160a01b0382166116e0576002805482900390556116ff565b6001600160a01b03821660009081526020819052604090208054820190555b816001600160a01b0316836001600160a01b03167fddf252ad1be2c89b69c2b068fc378daa952ba7f163c4a11628f55a4df523b3ef8360405161174491815260200190565b60405180910390a3505050565b600080516020611a318339815191525460020361178157604051633ee5aeb560e01b815260040160405180910390fd5b565b60006020808352835180602085015260005b818110156117b157858101830151858201604001528201611795565b506000604082860101526040601f19601f8301168501019250505092915050565b80356001600160a01b03811681146117e957600080fd5b919050565b6000806040838503121561180157600080fd5b61180a836117d2565b946020939093013593505050565b60008060006060848603121561182d57600080fd5b611836846117d2565b9250611844602085016117d2565b9150604084013590509250925092565b60006020828403121561186657600080fd5b5035919050565b60006020828403121561187f57600080fd5b611888826117d2565b9392505050565b6000806000606084860312156118a457600080fd5b505081359360208301359350604090920135919050565b600080604083850312156118ce57600080fd5b50508035926020909101359150565b600080604083850312156118f057600080fd5b6118f9836117d2565b9150611907602084016117d2565b90509250929050565b600181811c9082168061192457607f821691505b60208210810361151657634e487b7160e01b600052602260045260246000fd5b6020808252600c908201526b4e6f206c697175696469747960a01b604082015260600190565b634e487b7160e01b600052601160045260246000fd5b808201808211156104c8576104c861196a565b818103818111156104c8576104c861196a565b6000602082840312156119b857600080fd5b8151801515811461188857600080fd5b602080825260159082015274151bdad95b881d1c985b9cd9995c8819985a5b1959605a1b604082015260600190565b80820281158282048414176104c8576104c861196a565b600082611a2b57634e487b7160e01b600052601260045260246000fd5b50049056fe9b779b17422d0df92223018b32b4d1fa46e071723d6817e2486d003becc55f00a26469706673582212202ab3cc3900473a7528ce853db94a1b8a37070ea9f97a18c42cd6835721f9fcca64736f6c63430008180033",
  "linkReferences": {},
  "deployedLinkReferences": {}
}